:040000006F20400B22
:10000400000000000000000090000020A204002076
:10001400A9BDF9F3900000200000000000000000DA
:10002400900000209000002000000000000000006C
:10003400900000200000000090000020000000005C
:1000440090000020900000209000002090000020EC
:100054009000002090000020AC05002090000020BB
:1000640090000020900000209000002090000020CC
:1000740096050020900000209000002090000020B1
:1000840090000020900000209000002090000020AC
:1000940001A04111B7170040985F3AC6945F3247F8
:1000A400E39CE6FE32454101828073270080218B68
:1000B4009387818609CB7327008023A4E186984324
:1000C4005D9B731007800100010037170040930601
:1000D40070052300D704930680FA2300D704010097
:1000E40001008346B70493F6F60DA305D704230055
:1000F4000704732600809443A18AD18E73900680EE
:1001040023A4018601000100937605026384061886
:100114000347A700118B25E773270080218B09CBA8
:100124007327008023A4E18698435D9B73100780A6
:100134000100010037170040930670052300D7041F
:10014400930680FA2300D704010001008346A70028
:1001540093E646002305D70023000704F326008016
:100164009843218B558F7310078023A401860100C7
:1001740001001307004B010001007D176DFF732779
:100184000080218B09CB7327008023A4E186984348
:100194005D9B731007800100010037170040930630
:1001A40070052300D704930680FA2300D7040100C6
:1001B40001007D892314A700010001000100010052
:1001C40023000704F32600809843218B558F731076
:1001D400078023A401860100010073270080218B7E
:1001E40009CB7327008023A4E18698435D9B731099
:1001F40007800100010037170040930670052300B3
:10020400D704930680FA2300D704010001000100FB
:100214000100B726004013061005A383C6802300FF
:100224000704F32600809843218B558F73100780B1
:1002340023A401860100010073270080218B09CBD0
:100244007327008023A4E18698435D9B7310078085
:100254000100010037170040930670052300D704FE
:10026400930680FA2300D704010001008346B704F3
:1002740093E60608A305D704230007047327008028
:100284009C43A18BD98F7390078023A4018601001E
:100294000100828093760504638B06140347A7004C
:1002A400418B25E773270080218B09CB73270080BE
:1002B40023A4E18698435D9B73100780010001002D
:1002C40037170040930670052300D704930680FA7D
:1002D4002300D704010001008346A70093E606012A
:1002E4002305D70023000704F32600809843218BBD
:1002F400558F7310078023A40186010001001307A2
:10030400007D010001007D176DFF73270080218BA4
:1003140009CB7327008023A4E18698435D9B731067
:100324000780010001003717004093067005230081
:10033400D704930680FA2300D704010001009376C2
:10034400F50193E606042314D7000100010001001F
:10035400010023000704F32600809843218B558F66
:100364007310078023A401860100010013076004B1
:100374006310E50473270080218B09CB7327008069
:1003840023A4E18698435D9B73100780010001005C
:1003940037170040930670052300D704930680FAAC
:1003A4002300D70401000100B72600400946B5B573
:1003B40073270080218B09CB7327008023A4E18657
:1003C40098435D9B731007800100010037170040BC
:1003D400930670052300D704930680FA2300D704FC
:1003E40001000100B7260040130620053DB5732720
:1003F4000080218B09CB7327008023A4E1869843D6
:100404005D9B7310078001000100371700409306BD
:1004140070052300D704930680FA2300D704010053
:1004240001008356870093E6060C2314D700C5BB4E
:100434004111814601468145114506C68124F327B1
:100444000080A18B9386818689CBF327008023A427
:10045400F1869C42DD9B7390078001000100B71771
:100464000040130770052380E704130780FA2380F4
:10047400E7040100010003C767041367170023831F
:10048400E70423800704732700809C42A18BD98F43
:100494007390078023A4018601000100B24041014A
:1004A40082808146014681451145C92AF32700808F
:1004B400A18B1387818689CBF327008023A4F1863F
:1004C4001C43DD9B7390078001000100B7170040B7
:1004D400930670052380D704930680FA2380D704FB
:1004E40001000100FD562396D70223800704F3265A
:1004F40000801C43A18BD58F7390078023A40186B1
:1005040001000100F3270080A18B89CBF327008031
:1005140023A4F1861C43DD9B739007800100010036
:10052400B7170040930670052380D704930680FA1A
:100534002380D7040100010083C6670493E61600F4
:100544002383D70423800704F32600801C43A18B54
:10055400D58F7390078023A401860100010001A0B8
:10056400BD473305F50201007D1575FD82804111FB
:1005740022C426C206C6AA84014463179400B2406A
:10058400224492444101828005041305803E4204C2
:10059400C13F4180DDB7B71700401307000323882C
:1005A400E702854723A8F18A73002030974000E0D2
:1005B400E780E08273002030411106C6AD25FDBFFF
:1005C4002303048015472303E48001002302A4804D
:1005D400828083076480E3CE07FE23030480828045
:1005E40083076480E3CE07FE03454480828083074B
:1005F4006480E3CE07FE2302A4808280411126C4D6
:100604004AC24EC006C61377F50BAD47AA892E8998
:1006140095446306F70019456537653F8D444E855B
:100624004537FD59FD1463983401B240A244124980
:10063400824941018280135509011375F50F453F25
:100644002209CDB7011126CC06CEB70408005137D4
:100654001545BD37713769372AC6A53F32459377AB
:10066400150089EB136515001375F50FF240E2448C
:1006740005618280FD14E9FC0145CDBF397126DC9A
:100684004ADA4ED852D656D45AD25ED006DE62CE5C
:1006940066CCB7E700E07D5783AA070022C603AA09
:1006A400470023A0E71823A2E718B7170040130751
:1006B40070052380E704130780FA2380E70483C7C7
:1006C4004704930B75FFB684E20793FBFB0F854643
:1006D400AA892E8B328937240040E187015763FAB7
:1006E40076016308D5008946130700026313D50019
:1006F4000157D98F93F7F70FB71C00402382FC04EE
:1007040011472303E4801305F00F5D3D094CD135F7
:10071400636D7C11B7050700DA95378707007955B3
:1007240063F2E504B3879500636EF702370B0800A4
:10073400A94733EB65016399F90689E48144513D86
:1007440026850DA0DA850945553D05090345F9FFC0
:10075400FD14050B693D81C49377FB0FFDF7DD356F
:1007640069FD7D55B7170040130770052380E70422
:10077400130780FA2380E70403C74704418B2382CD
:10078400E704F250B7E700E023A0571123A2471172
:10079400E25432445259C259325AA25A125B825B11
:1007A400724CE24C21618280A5476395F906856904
:1007B4001309F00FB3069900B3742B01B6941349CF
:1007C400F9FFB3749900856B33796901416B9387A1
:1007D400F9FFB3F7270199E363FC340193D9490086
:1007E400C147E3E637FF99BF0569C1697D19D9B7E8
:1007F4001305800D63886901130500026384790180
:1008040013051008CA85DD3B353D21DD4E99B384BF
:100814003441D9B7DA852D45D533CA94E30099F22A
:1008240005097D3BA30FA9FED5BF9387F9FF93F775
:10083400F70F6361FC0C83C71C0413073008631FA4
:10084400F70437070800636BEB04B3079B00B70694
:10085400100063F5D704334BEB0089476393F90623
:100864008980D549E38C04ECDA850945413B1109BB
:100874000327C9FF91472320E48003076480E34EE4
:1008840007FE23033481FD17EDFBFD14110B81C416
:100894009377FB0FE9FF7D3371F5E1B5B71700409E
:1008A40003C75704B70708001377070219E3B7878C
:1008B40007007955E378FBEA33079B00E3FFE7F889
:1008C40055B58547E382F9F2DA852D45053B9389D1
:1008D400F4FFE38504E6293393F7390091EB83268B
:1008E40004800327090093074900E39AE6E43E895C
:1008F400CE84F1BFB5476396F9001305900BC93157
:1009040035BDB1471305B00AE38BF9FE99476391EE
:10091400F904B7050800B365BB002D45C531814412
:100924008D4BA14975396396740183270480232074
:10093400F9008504E39834FF8327048013172B01FF
:10094400635507002312F900D5BB2322F900FDB338
:100954009D476399F90281451305B0044531BD44AF
:100964002320090023220900FD599D3993F77400BF
:10097400CA9703C70700FD14398D2380A700E396A7
:1009840034FF6DBBA1476392F9046D398144630D53
:100994000B008D479304C0036308FB009304000518
:1009A40063048B01930440041375C507E30895D8C9
:1009B4001945393139390545213126850D3909451E
:1009C4003D314931E31C05D669BB91476399F90070
:1009D40013056006F536F53E130590090DB7E38F50
:1009E40009D4F154A9BB19CD91CD09CE81473387E0
:1009F400F500834607003307F50085072300D70079
:100A0400E317F6FE828019C991C909CA910583A723
:100A1400C5FF11057D16232EF5FEC5BF828001C9D1
:100A240019C62A960505A30FB5FEE31DA6FE82800E
:100A340081473307F5000307070019E33E858280E9
:100A44008507C5BF01112E8626CAAA84131506017F
:100A54009305F004418122CC06CE32C6EF00B05695
:100A64002A8401C53246A685BD3F2285F2406244F0
:100A7400D24405618280854715C18DC105C2814775
:100A8400B306F5003387F50083C606000347070065
:100A94006398E6008507E315F6FE85473E85828068
:100AA4008147EDBF9307F6FFBE952A966313C500F1
:100AB4008280FD1583C715000505A30FF5FEFDB75C
:100AC400AA87014581CF09CE3E96850703C7F7FF64
:100AD4006317B700E39BC7FE05458280828001450A
:100AE40082807971974700009387877722D4804367
:100AF40006D626D24AD04ECE52CC56CA5AC85EC664
:100B040079C0B7C4C901014B974900009389C974DE
:100B14009384F437174A0000130ACA74974A0000F2
:100B2400938ACA6E17490000130909788357240071
:100B340095E35C44631D0B00174700002322F77202
:100B4400832BC4002285EF0030555E84B9A8232688
:100B5400FB00FDB783A7090082971C443307F540C7
:100B64006376F500032749001D8F2A9763E2E408A2
:100B74009747000023A4076A835524000345040013
:100B8400974000E0E78020365C405844A1CB0C44F9
:100B940003264900AE97BE8663E4B70063E4C7004A
:100BA400B386C74014C4228B3A8449F097470000A7
:100BB4009387C7659C4B09476372F706F917174774
:100BC4000000232DF764B250225492540259F24982
:100BD400624AD24A424BB24B4561828063170B0092
:100BE4009747000023AEE766A1BF2326EB0089BF29
:100BF40003274A0209CF63EFA7003385A74083A7E1
:100C04000A016376F5009747000023A9A760228BA9
:100C1400404461BF03274900BA97C5B7974700000E
:100C240023AE075E4DB7411122C4174400001304DC
:100C3400A4601C4006C626C24AC091C78297974743
:100C4400000023AB075E9747000083C7377F858B7F
:100C5400974400009384447E95C397470000A38F74
:100C6400077C83C774001547637AF700A12B83C7F9
:100C74007400F5178A07A2979C4382971C4491C37A
:100C84008297174900001309695D03270900174675
:100C940000000346B6579747000083C7275793962B
:100CA4001700BA9683D60600D5CE9747000083C7AF
:100CB400E75563E3C70C97470000238907541C409A
:100CC400639D07129747000083C7977791CF83C727
:100CD400740093F7F70F89EB97470000A382077618
:100CE400974001E0E780E071974700009387C7567B
:100CF4009C4363840710974700009387E75ADC43BB
:100D040017470000232CF750E93B974700009387CF
:100D14006755DC53FDC3174700001307274F184BD3
:100D24009747000083C757556369F70C83C774005E
:100D340015476364F70C9747000083C7A774918B2A
:100D4400CDEF032609009746000083C6364C63CCDA
:100D5400D70A2244B240924402494101174300E0B9
:100D640067004363850793F7F70F97460000238FC7
:100D7400F648E3E2C7F215BF86073E97835507009E
:100D840023100700974700002396074C974700005D
:100D94009387474A9C43174500000345254713178B
:100DA4002500BA979C4382979747000083D7874AC8
:100DB400174700000347874593C7F7FF7D8D9317B7
:100DC4001700032709003E97835707005D8D231002
:100DD400A7009747000083C7674391C78507174754
:100DE40000002305F74217470000034727429747AF
:100DF400000083C7B741E370F7ECB2402244924449
:100E04000249410182801397170032970357070064
:100E14006DF785072DBFAD6737C70040BD07232693
:100E2400F7200F100000974700009387273EC84F14
:100E340083278726BD66BD0693C7F7FF99836A0596
:100E44002326D7205D8D82804111B7170040985F1B
:100E54003AC6945F3247E39CE6FE32454101828004
:100E64001305F00F82800111974700009387076DE7
:100E740022CC03A4070C26CA06CE2AC42EC6854457
:100E840019E40145F2406244D244056182808347FB
:100E9400910003471400858B6304F7000044CDB729
:100EA40019469305A10013052400F136E31895FEB5
:100EB4000545C9BF17470000130707571C4393068E
:100EC400001094C301000100010001001C4323A091
:100ED40007008346150003482500A2064208C2966F
:100EE40003480500C296034835006208C29694D7A9
:100EF4008346550003486500A2064208C29603488B
:100F04004500C296034875006208C296D4D783464A
:100F140095000348A500A2064208C296034885002E
:100F2400C2960348B5006208C29694DB8346D50096
:100F34000348E500A2064208C2960348C5000345DB
:100F4400F500C2966205AA96D4DB83C6150003C5D4
:100F54002500A2064205AA9603C50500AA9603C564
:100F640035006205AA9694CF83C6550003C5650073
:100F7400A2064205AA9603C54500AA9603C57500B4
:100F84006205AA96D4CF83C6950003C5A500A20620
:100F94004205AA9603C58500AA9603C5B500620555
:100FA400AA9694D383C6D50003C5E500A2064205DC
:100FB400AA9603C5C50083C5F500AA96E205AE96B8
:100FC400D4D3D443F59AD4C3D44393E61600D4C3FC
:100FD400944393E6160094C3BA879443D842058B8E
:100FE40059E3984E01452300E6009843184F2183A6
:100FF400A300E6009843184F41832301E600984379
:10100400184F6183A301E6009C43D84F2302E600F6
:10101400D84F2183A302E600D84F41832303E6007F
:10102400D84F6183A303E60098532304E600985342
:101034002183A304E600985341832305E6009853D3
:101044006183A305E600D8532306E600D853218321
:10105400A306E600D85341832307E600DC53E1836B
:10106400A307F600828001008DBF17470000130715
:10107400E73B1443411122C49C5E4AC006C69983CF
:1010840026C2858B3A84174900001309E939D1CB6C
:101094009C5E974400009384243A93F7F7F99CDE0E
:1010A400174700000347A73993070008631BF7009D
:1010B400832709009C4393F7070417470000230084
:1010C400F73883C7040093F707049DC397470000CC
:1010D400938787189C4382979747000023A6A736D7
:1010E40083C7040093F7F70B174700002306F73470
:1010F40083C7440093F707048DE78547174700002B
:10110400A30EF732974700009387C7349C430967BF
:1011140098C7130700FC974600002381E632D844A1
:10112400F8D31C40985F1183058B09CB985F3D9BD6
:1011340098DF0547974600002382E630985F1D83B9
:10114400058B11CB985F1377F7F798DF854717471F
:1011540000002305F72E83270900D8430583058B58
:1011640019C7D843759BD8C3D843799BD8C3B24019
:1011740022449244024941018280397106DE16DC20
:101184001ADA1ED82AD62ED432D236D03ACE3ECC53
:1011940042CA46C872C676C47AC27EC0F935F250D5
:1011A400E2525253C2533255A255125682567247D6
:1011B400E2475248C248324EA24E124F824F21613A
:1011C40073002030974700009387C72894439747BC
:1011D40000009387672603C70700058B11CB974749
:1011E4000000238D072497470000A38907248280E9
:1011F40003C71700058B65F7F85271FF83C75700C3
:10120400DDB71748000013086822032708001C5F95
:101214009583858BD1E709C61C5BBD832300F6004B
:1012240085CA83270800985B46079357670163566E
:10123400070093E707C0C207C18303970600C207EC
:10124400C18709C7BA970947B3C7E7022390F600D5
:1012540085CD834715008DCB9746000083C6261E97
:1012640093F606041387970089478DCA3A95034776
:101274000500854699471376F7066311D60262077F
:101284006187B947634C0700832708009C5FED839F
:101294008D8B17470000A306F71A81473E8582808D
:1012A4008547EDBF411122C406C61744000013044C
:1012B400641A18403DE9AE877453FDFE3E85B2853D
:1012C40097470000238B0716974001E0E780E0E68C
:1012D40097470000938787159C43B706800098437F
:1012E400558F98C3D857719BD8D797470000A387C9
:1012F400071497470000A38107141C40094798C3AB
:101304001440174700001307271383472700858BD2
:1013140089EB83473700858BD9C797470000238F14
:101324000710B2402244410182808D476310F502C8
:10133400974700009387870F9C43B7068000984324
:10134400558F98C3D857719BD8D75DBF8547E3198C
:10135400F5FA5447F977FD17F58F5CC70F100000B5
:101364001C40096798C7130700F8174600002307B5
:10137400E60C174700001307670B1043184231832C
:101384000D8B11E713076019F8D3D4C795BF184222
:10139400094631830D8B6315C7001307E043EDB78E
:1013A4001307E01BD5B7FC52ADF3A5BF5D71A2C412
:1013B400A6C22A84130680022800AE84930510086E
:1013C40086C6CAC04EDE52DCEFF06FE53545974065
:1013D40001E0E780A01517430000130323058327CA
:1013E40003009376F41F174E0000130EEE0B23A494
:1013F4000700984B974E0000938ECE05370FFCFFE5
:101404001367F70398CBF84F130510F8B7020400DD
:10141400137707E0558FF8CF9843F576FD16758F4F
:1014240098C39843B7063300930380251377F7E7EF
:1014340098C3984311497D1F1377F7E71367071083
:1014440098C303270E008549930F80021C47D58F4C
:101454001CC783A70E001307900D3400B8CB0147B7
:1014640093553700A69583C7050013767700B3D745
:10147400C740858BE1C38327030083280E00239C88
:1014840007042390070603A8C8021378D8FF23A6ED
:10149400080383A807001378F70793F808F833E8DC
:1014A400080123A0070103A847023368580023A2B8
:1014B400070383A80E00014823A2780603DA07066F
:1014C4006307480303A80703038A06001358F800B8
:1014D40062081358884163580A0103A80703135884
:1014E400F8002380060103D807061378F80F03AA2F
:1014F400480663060A0003DA8705E37F49FB03A86D
:1015040047023378E80123A2070383870600635C5C
:10151400F40003C805003396C9001346F6FF33767A
:1015240006012380C5003E8663D3A7002A861315CF
:101534008601618505071377F70F8506E312F7F334
:10154400B640264496440649F259625A6161828043
:1015540097460000938606F09C42D847131617015D
:1015640063550602984713161701635006027D5708
:10157400B8D717470000130767C9584F0507174620
:1015840000002323E6CA116798C798470D83058B8B
:101594001DC317470000034747EA136717001746A0
:1015A4000000230CE6E8130700F8174600002307A1
:1015B400E6E8214798C79847058B09CF17470000ED
:1015C400034797E71367170017460000A306E6E6EC
:1015D400054798C798470983058B09E7984705830A
:1015E400058B31CF9847174600001306E6E41745EC
:1015F40000001305A5E30983058B63030710184155
:10160400184331830D8B75EBAC4B184E93F50502E3
:1016140003471700CDCD79EF13077006D8CF0347E2
:10162400060013671700174600002307E6E011477A
:1016340098C718415C57F19B93E717005CD79C420D
:1016440098479316370163D606029746000083C66F
:1016540066F6C18A17470000130747EEC5CE034755
:10166400870713670702974600002385E6F405679A
:1016740098C798479316270163D1060217470000BD
:101684000347C7DB6207618763570700054797462F
:1016940000002385E6DA096798C79847931607017F
:1016A40063D606029746000083C6D6F0858A17479C
:1016B40000001307A7E8ADCE034797071367270079
:1016C40097460000A388E6EE216798C7828029D751
:1016D40085456315B7001307B00689B789456315B7
:1016E400B7001307F0061DBF8D456315B700130738
:1016F40030072DB71307500715B71307600739BF15
:10170400034736001367170017460000A307E6D205
:10171400094739BF834687070946BD8A6388C600DF
:10172400034787078D463D8BE313D7F4114725BF45
:1017340083469707918AC9DA034797071367870097
:1017440041B7397106DE16DC1ADA1ED82AD62ED431
:1017540032D236D03ACE3ECC42CA46C872C676C4DD
:101764007AC27EC0F533F250E2525253C25332551C
:10177400A255125682567247E2475248C248324E28
:10178400A24E124F824F2161730020309747000010
:10179400938747CC98438567938707777CD397478C
:1017A4000000938767D09C4383A6070913965600CD
:1017B4006358060083A6070913966600634406006F
:1017C4007453FDF2828071C5AA870145E9C58D076E
:1017D400C207C183F19BC207C18313074003636F30
:1017E400F702174700001307E7D408431747000020
:1017F4001307C7D314436398A602174700001307BF
:1018040067A6185B014541CB4111C20706C60545D1
:10181400DD8D0297B24001454101828017470000E7
:10182400130707D1D9B70357650035E303574500BC
:10183400636FF704B306F7402146637CD60203289E
:101844000500938687001D8FAA966117174600002E
:101854000356269C2392E60023A006012393060048
:1018640014C12312F500130786FF97460000239244
:10187400E69A2313B5009745000083D58599B3876D
:10188400F540174700002316F79821058280084188
:101894009DB70145828082800DC1974700009387E0
:1018A40067C903A3070097470000938727C883A845
:1018B400070081469A8763E31701828003A8070023
:1018C400636DF50A636BA80A13878700E367E5FE77
:1018D40003D66700216705076317E60003C7C196AF
:1018E40005072386E196974500009385259203D644
:1018F400470003D7650023930700329742074183CB
:10190400174500002317E590638A67021745000016
:10191400130505C208416303F50203D5660019EDFA
:1019240083D7460023A0060121073E962106239271
:10193400C60097470000239EE78CB6879843E30EC2
:1019440017F7974600009386A6BE9442E307D7F69E
:1019540083566700BDF283D64700035647001843F9
:10196400A106B2962392D70098C383D76500A10736
:1019740017470000231FF7888280BE86C28725BFD1
:101984000327851163020712411122C406C6834747
:10199400C5008345E5042A8493F7C70F2306F500A1
:1019A400834697000356C70013958601618563F249
:1019B400C508635B05060345870093F6F607A30491
:1019C400D700054693E627006314C50093E6170085
:1019D4002306D4005C4389075CC3A30AB40003252F
:1019E40004112E864C430905EFE0FFFF8327841181
:1019F40003465401D44303D7C700B296118FD4C30E
:101A04002396E7008947A30DF4000347640397472F
:101A1400000083C747866378F7048347C40093E7CD
:101A240007012306F40081A093E717002306F400BE
:101A34006DB79376F60F635D050203458700854510
:101A440013E627006314B50013E617002306C40049
:101A5400A30AD400A30407008547A30DF400832739
:101A640084119C43DDF3B24022440145410182804C
:101A740093E717002306F400A30AD400A304070085
:101A8400032504114C430905EFE0FFF58327841176
:101A940003465401D44303D7C700B296118FD4C36D
:101AA4002396E7008D4755BF054582809747000080
:101AB400938787BB9C43411122C406C6858B2A8425
:101AC400C5EF4165130525F597F001E0E780600D4A
:101AD40045C58347A5002315F50083270412BDE7F8
:101AE4002320A4122322A41285472311F4042320C3
:101AF40005008347640154412316F5000347D400CD
:101B04002304E5000547A304E50017470000130775
:101B1400A792184F1385170215811C437D15137561
:101B2400F50F9CC25C43DCC21C479CC65C47DCC608
:101B34001C4B9CCA5C4BDCCA1C4F9CCE5C4FDCCE5D
:101B440019CD9386060213070702C1BF83274412E7
:101B540088C3835724042322A412850779B797479F
:101B6400000083D7279E850717470000231CF79C96
:101B7400B2402244410182808347C4002309040007
:101B8400054593C747002306F400DDB78347850165
:101B940093F7E70FD5EF83479501DDEB0346250166
:101BA4008346C50009CA8345650317370000034708
:101BB400976C63E7E50013F7060141CF014709C6B7
:101BC400C18A0357651C81C68356A51C369751C329
:101BD4001307C712173500000355856DB335A702E7
:101BE40037460F00411113060624814622C426C23B
:101BF40006C67D543305A702972002E0E780C0089B
:101C04009737000083C79767B384A70097470000FE
:101C14009387C79203A787098327070963F387007C
:101C24003E84184375FB973700009387E7629C4313
:101C3400829781476364A400B307A440B24022445E
:101C4400B3B7970093C7170092443E854101828041
:101C540081473E858280973700009387A77F98430A
:101C64007C53FDFF8280797126D206D622D44AD0D5
:101C74004ECE52CC56CA5AC85EC683475503034457
:101C84007513AA843E941374F40F9307400263F609
:101C940087001304B4FD1374F40F03AA841383AAF6
:101CA400C413A38B841222865285D685972002E022
:101CB400E78000F8058915E503CBD4120149814971
:101CC400337B6403930B50024A865285D685972052
:101CD40002E0E780E0F5058915C563916903137493
:101CE400F90F238B8412B250225492540259F249B0
:101CF400624AD24A424BB24B456182808509E2096D
:101D040093D989410509E31179FDE1BF8327850949
:101D140003560504797193D60701BD8EC206C182AC
:101D2400358E1357764093575640898B058B5D8FBC
:101D340093573640918B5D8F93571640A18B5D8FDF
:101D440093171600C18B5D8F9317360093F7070224
:101D54005D8F931756009355860093F707041E066C
:101D64005D8F1376F60F518F93D7554013D63540B8
:101D7400118A898BD18F13D67540D18F13D6154014
:101D8400218AD18F13961500418AD18F139635007D
:101D940013760602D18F13965500137606049E051A
:101DA400D18F93F5F50FCD8FA20745465D8F33078D
:101DB400C70222D42A8426D252CC56CA032A8413B8
:101DC400832AC4135AC806D63697420741839357C9
:101DD4007740135557400989858BC98F1355374070
:101DE4001189C98F135517402189C98F13151700FD
:101DF4004189C98F1315370013750502C98F13154F
:101E0400570093558700137505041E07C98F137770
:101E1400F70FD98F13D5354013D755401189098B46
:101E2400498F13D57540498F13D515402189498FA2
:101E3400139515004189498F1395350013750502D3
:101E4400498F13955500137505049E05498F93F525
:101E5400F50F4D8F2207D98FB387C7024AD04ECED4
:101E64005EC662C4B697C207C18313D7774013D541
:101E740057400989058B498F13D537401189498FFC
:101E840013D517402189498F139517004189498F2C
:101E94001395370013750502498F1395570093D591
:101EA4008700137505049E07498F93F7F70FD98FA1
:101EB40013D5354013D755401189098B498F13D554
:101EC4007540498F13D515402189498F1395150005
:101ED4004189498F1395350013750502498F139570
:101EE4005500137505049E05498F93F5F50F4D8F25
:101EF4002207D98FB387C702130650025285D685AD
:101F0400B697BD8E93940601C18033F6C402137B49
:101F1400F60F972002E0E780A0D105890DED8347F5
:101F2400D41201498149B3849702130C5002C18031
:101F34004A865285D685972002E0E78060CF0589DE
:101F4400937BF90F11C563863403850993F9F90F5F
:101F54000509E31F89FD230B6413B25022549254E4
:101F64000259F249624AD24A424BB24B224C456171
:101F740082805E8BCDB7797122D406D683C73500B3
:101F84002E8423160100A307F10083C7450010081F
:101F940002C02307F10083C755008A8502C2A30645
:101FA400F10002C402C802CA02CC02CEEFE09FF0E4
:101FB4000347F1018347040001456310F702034717
:101FC400E1018347140001456319F7000345D1017A
:101FD400834724001D8D13351500B25022544561EA
:101FE40082800111973700009387475522CC03A4C0
:101FF400870C26CA4AC84EC606CEAA8413092500F1
:10200400854915C083C7140003473400858B6304D6
:10201400F700405CFDB71946930544004A85EFE09C
:102024009FA5E31835FF2285F2406244D244424919
:10203400B2490561828041119737000093870750A8
:1020440022C403A4870C26C24AC006C693042500F2
:10205400054901E82285B2402244924402494101E3
:102064008280A6851305A4023937E30525FF405C69
:10207400CDB74111973700009387474C22C403A47E
:10208400870C26C24AC006C693042500054901E808
:102094002285B24022449244024941018280A685AD
:1020A4001305A401C93DE30525FF405CCDB700003D
:1020B400971100209381C1CA17610020130141F4D4
:1020C4001305400097E5FF1F938585F3170600204D
:1020D400130606FE63FAC5008322050023A05500FB
:1020E40011059105E3EAC5FE174502001305C53342
:1020F400970500209385C5FB1386818663FAC50086
:102104008322050023A0550011059105E3EAC5FECD
:102114001385818697350020938505566377B5002E
:10212400232005001105E36DB5FEFD42739002BC4A
:102134008D4273904280930280087390023097E23C
:10214400FF1F9382E2EB93E2320073905230973296
:1021540000009382029473901234730020303D4344
:102164002A876373C3029377F700BDEFADE59376D7
:1021740006FF3D8ABA960CC34CC30CC74CC7410733
:10218400E36BD7FE11E28280B306C3408A0697024E
:10219400000096966780A6002307B700A306B70041
:1021A4002306B700A305B7002305B700A304B700AF
:1021B4002304B700A303B7002303B700A302B700A7
:1021C4002302B700A301B7002301B700A300B7009F
:1021D4002300B700828093F5F50F93968500D58D83
:1021E40093960501D58D61B7939627009702000059
:1021F40096968682E78086FA9680C1171D8F3E9652
:10220400E374C3F8A5B7B7170040854603C887052C
:1022140083C89705238CD70403C797051378F80F51
:1022240093F8F80F13678700A38CE70403C7970597
:102234001377B70FA38CE704238DD7043717004017
:102244008347A7051306A705858BFDFB0565414755
:10225400B7150040054E1303F5FF2300C60183465E
:102264000600858AEDFE83D6C5057D17420793C611
:10227400F6FFB3F666004183B69765F3A107918331
:10228400130505801D8DA38C15054205238C0505BA
:1022940041858280B717004003C777051A05920568
:1022A4004D8D1377E70F13653500A38BE704137582
:1022B400F50FA38CA7048280B717004003C77705E6
:1022C4001377E70FA38BE704130700F8A38DE70444
:1022D4003D47238CE70413075003A38CE704828053
:1022E4000547B7170040238DE7043717004083479D
:1022F400A705858BEDFF0355C705520551818280E3
:10230400B717004083C7E7020D8993F7C70FC98F3A
:1023140073270080218B9386818609CB73270080E5
:1023240023A4E18698425D9B73100780010001009D
:1023340037170040130670052300C704130680FAFC
:102344002300C704010001002307F7022300070448
:10235400732700809C42A18BD98F7390078023A49C
:10236400018601000100828041112A83014E930EEF
:10237400407E130F0019930F400663E66E14930812
:10238400001913034006B3781503854E0D4FA14F72
:10239400337365020D891335150063E0BE16130807
:1023A400F6FF794672984208135808013307C702AA
:1023B40013D61700BE0732976146B3F6C60213065A
:1023C4008070B386C6023697A166F58F42075D8F8B
:1023D400B716004083C7F60293F70708A307F10076
:1023E4000346F10083C7F60293F70708E394C7FE98
:1023F4008347F100B716004093F7F70F638907147A
:10240400F3270080A18B93868186639807140100CB
:102414000100B7170040130670052380C704130694
:1024240080FA2380C7040100010023AA070303C61E
:10243400170313660608A388C702238007047326BC
:1024440000809C42A18BD18F7390078023A40186C6
:10245400010001001166B71500407D16DC59C85D06
:10246400A98FF18FE5FFF3270080A18B89CBF32798
:10247400008023A4F1869C42DD9B739007800100B9
:102484000100B7170040130670052380C704130624
:1024940080FA2380C70401000100D8DB03C71703B7
:1024A40013670704A388E7022380070473270080C7
:1024B4009C42A18BD98F7390078023A401860100CD
:1024C4000100410182807D133368E3039308E01621
:1024D400630E08003368F3039308D01663080800FA
:1024E4009378330093B818009388D81633081E01E4
:1024F400131E0801135E0E0149B56393E5030548F5
:10250400638608000148630303002A8871087298EF
:10251400FD15131E0801C205135E0E01C181B5BD70
:1025240013F8150063F4BF007908D5B71338180001
:10253400E5BF83C7F60293F70708A307F100034634
:10254400F10083C7F60293F70708E394C7FE8347B5
:10255400F10093F7F70FF1DF65B5F327008023A4AB
:10256400F1869C42DD9B7390078055B55971E2C496
:1025740086D6A2D4A6D2CAD0CECED2CCD6CADAC8F7
:10258400DEC6E6C2EAC06EDE2A8C02D6EF00101662
:10259400F3270080A18B138D818691CBF3270080D4
:1025A40023A4F18683270D00DD9B7390078001002F
:1025B4000100B7170040130770052380E7041307D1
:1025C40080FA2380E7040100010003C7F7021377B0
:1025D400770FA387E70203C7F70213678700A38770
:1025E400E702238007047327008083270D00A18B53
:1025F400D98F7390078023A4018601000100F3277B
:102604000080A18B91CBF327008023A4F18683273C
:102614000D00DD9B7390078001000100B717004097
:10262400130770052380E704130780FA2380E70467
:102634000100010003C7E7021377C70F2387E702EE
:1026440003C7E702136717002387E7022380070401
:102654007327008083270D00A18BD98F7390078087
:1026640023A4018601000100130780C13347E5025A
:102674009169938709E8130650023D69B7440F0036
:1026840093840424856B130BA004014A814A130428
:102694007005FD19B347F5023307C7023EC293071D
:1026A40009A61309803E3347F7023AC4334725038A
:1026B40005493319890113593940334595029384E7
:1026C4000BFAB3948401811B3306C702B346F602A6
:1026D4003309E90236C6330B670313076055B304A5
:1026E4009502130500103309E902B346FB02130BEC
:1026F40080FAB3C4A40236C8B347F90293963400EF
:102704003719004036CC930409043ECA732600806E
:10271400218A11CA7326008023A4C18603260D00D2
:102724005D9A7310068001000100930770052380F1
:10273400F400238064010100010003463905137687
:10274400860FA309C9040346390513661600A309B5
:10275400C904238004007325008003260D00218A08
:10276400498E7310068023A4018601000100916C38
:10277400E17D73260080218A11CA7326008023A478
:10278400C18603260D005D9A7310068001000100C6
:10279400930770052380F400238064010100010085
:1027A4000346390513660602A309C904035609053D
:1027B400336696012318C904035609053366B60126
:1027C400420641822318C904238004007325008033
:1027D40003260D00218A498E7310068023A40186E6
:1027E4000100010003463905137606026305061647
:1027F40003463905218A6DDE6810152F7326008083
:10280400218A11CA7326008023A4C18603260D00E1
:102814005D9A7310068001000100238084002380E8
:10282400640101000100034639051376F60DA3097E
:10283400C9040346390513660602A309C9040356ED
:102844000905336696012318C9040356090533663E
:10285400B601420641822318C9042380040073256B
:10286400008003260D00218A498E7310068023A45C
:102874000186010001000346390513760602630848
:10288400061003463905218A6DFE97E0FF1FE78095
:1028940040802A8632CE97D0FF1FE780807F724621
:1028A400E30AC5FE0356090532553366960123181B
:1028B400C904612D03463905218A6DDE03550905D6
:1028C40003462905924733F5A9003386C902329598
:1028D4001D8DA24763D5A700B2476346F50E09468E
:1028E4006365560FC247850A1316150093FAFA0F4B
:1028F4003346F6026354A03A050609453346A60258
:1029040073250080218911C97325008023A4A18621
:1029140003250D005D9973100580010001002380DB
:10292400840023806401010001000355C9022A9632
:10293400420641822316C9022380040073250080C5
:1029440003260D00218A498E7310068023A4018674
:102954000100010039BD73260080218A11CA732643
:10296400008023A4C18603260D005D9A731006809F
:102974000100010023808400238064010100010020
:102984000346390513660602A309C90435BD732637
:102994000080218A11CA7326008023A4C1860326DD
:1029A4000D005D9A731006800100010023808400ED
:1029B4002380640101000100034639051366060201
:1029C400A309C90459BDE38F0AF073260080218A44
:1029D40011CA7326008023A4C18603260D005D9AC4
:1029E40073100680010001002380840023806401A9
:1029F40001000100034639051375FC0F1376860F99
:102A0400A309C90403463905498EA309C9042380CF
:102A140004007328008003260D00218A3366060112
:102A24007310068023A401860100010003463905C2
:102A34001D8A6317862773260080218A11CA73268C
:102A4400008023A4C18603260D005D9A73100680BE
:102A5400010001002380840023806401010001003F
:102A64000346390511651376F60DA309C904034617
:102A7400390513660602A309C90403560905498EDC
:102A84002318C904035609052165498E2318C9046E
:102A9400238004007325008003260D00218A498EBB
:102AA4007310068023A40186010001000346390542
:102AB40013760602630E062003463905218A6DDE6D
:102AC4006810B52173260080218A11CA73260080FC
:102AD40023A4C18603260D005D9A731006800100AD
:102AE4000100238084002380640101000100034667
:102AF400390511651376F60DA309C9040346390592
:102B040013660602A309C90403560905498E23184E
:102B1400C904035609052165498E2318C904238075
:102B240004007325008003260D00218A498E73104A
:102B3400068023A4018601000100034639051376AB
:102B440006026303061C03463905218A6DFE97D0ED
:102B5400FF1FE7800054AA8C97D0FF1FE7806053C3
:102B6400E30C95FF035609051165498E3255231868
:102B7400C904E12E03463905218A6DDE73260080DF
:102B8400218A1385818609CA7326008023A4C186FD
:102B940010415D9A731006800100010023808400B7
:102BA4002380640101000100034639051376F60D04
:102BB400A309C90423800400732800801041218ADA
:102BC400336606017310068023A401860100010008
:102BD4000358090503462905E24733F809013386FA
:102BE400C90232983308F8401306800C3306C80231
:102BF400D2473346F60263550015050609483346A5
:102C040006036351C0140358C9029308F00F135804
:102C14005800329863D6081F094663734619F32790
:102C24000080A18B89CBF327008023A4F1861C416B
:102C3400DD9B739007800100010037170040930764
:102C440070052300F704930780FA2300F7040100BA
:102C540001008356C70289678117D58FC207C183D4
:102C64002316F70223000704732700801C41A18B5D
:102C7400D98F7390078023A4018601000100B65008
:102C8400265496540659F649664AD64A464BB64BDC
:102C9400264C964C064DF25D656182807D16B1B975
:102CA40073260080218A11CA7326008023A4C1865A
:102CB40003260D005D9A7310068001000100238035
:102CC40084002380640101000100034639052DBB03
:102CD40073260080218A11CA7326008023A4C1862A
:102CE40003260D005D9A7310068001000100238005
:102CF4008400238064010100010003463905136642
:102D04000602A309C90469B373260080218A11CA83
:102D14007326008023A4C18603260D005D9A7310D8
:102D240006800100010023808400238064010100E7
:102D340001000346390513660602A309C904C5B395
:102D44007D166DBD55CE0358C902B308C040135853
:102D540058006357180B094663744605F32700802F
:102D6400A18B89CBF327008023A4F1861C41DD9B32
:102D74007390078001000100B71700401307700526
:102D84002380E704130780FA2380E704010001008D
:102D940003D7C7027D8B2396E70223800704E9B596
:102DA40073260080218A09CA7326008023A4C18661
:102DB40010415D9A73100680010001002380840095
:102DC40023806401010001000356C9021376F60F43
:102DD40033667601420641822316C9022380040029
:102DE400732800801041218A33660601731006801F
:102DF40023A4018601000100050A137AFA0F39B2EF
:102E0400F3270080A18B89CBF327008023A4F186CC
:102E14001C41DD9B7390078001000100B71700403F
:102E2400130770052380E704130780FA2380E7045F
:102E34000100010003D7C70216063A9642064182F2
:102E44002396C70299BF914763EEB7021737020072
:102E5400130707998A05BA959C41BA978287B717D1
:102E6400004003A7470B1345F5FF698F23AAE70A20
:102E740003A7070B698F23A8E70A03A7070A798D1D
:102E840023A0A70A8280B717004083A6470B1347E5
:102E9400F5FFF98E23AAD70A83A6070B558D23A81D
:102EA400A70A83A6070A758F23A0E70A8280B717AB
:102EB400004003A7470B498F23AAE70A03A7070B80
:102EC4001345F5FF45BFB717004083A6470B1347CB
:102ED400F5FF758F23AAE70A03A7070A598D4DB793
:102EE400B717004003A7470B498FEDB7B71700404A
:102EF40003D58700420541819377050491EB9377CD
:102F0400F5013755E801130505803345F502828044
:102F14009377050C130700046397E7009377F50193
:102F240037459C1CCDB72165130505D0828037E752
:102F340000E01C435443A183E206D58F1CC1FD5716
:102F44002320F7182322F718828013178500B7E788
:102F540000E023A0E710618123A2A7108280B7F7C5
:102F640000E08847CC478280814737370040A1463C
:102F740063C4C700328582800345B740E38EA6FE52
:102F84003385F5000345050085072304A740CDB725
:102F940097F7FF1F9387C75C9C43172700201307ED
:102FA400A76D3E95636EE50017570020130747E5AC
:102FB4006368A70017F7FF1F2324A75A3E85828062
:102FC400FD57EDBF411122C406C62A84053729479F
:102FD400B307E502B2408D83B3D787022244950735
:102FE400B3D7E70237370040C207C1832316F7403F
:102FF40041018280716541111305052006C6D93748
:10300400B7370040130770F82381E7400D47A381C9
:10301400E74013070004A380E74005472387E74000
:10302400B24041018280B787004023800700130724
:10303400C0FC2386E700A386E70003D7C186239854
:10304400E70003D70187239AE70003D74187239C2E
:10305400E70003D78187239EE70089462381D702AF
:1030640049472383E7022385E7022387E70223896D
:10307400D702A3810700130790022380E700B71645
:10308400004003D7A6011367070C239DE6007D5774
:103094002383E700130710F8A380E7001D4723816B
:1030A400E7008280B78700402384A70203C7A702F2
:1030B4001377C70F2385E7028280797126D206D65B
:1030C40022D44AD04ECE52CC03C88500A1441378F2
:1030D40008026311080683C8050009482E84814448
:1030E400639A080503A84500AA89328A8347180011
:1030F400034808003689A207B3E70701C2070D6831
:10310400C187130828906380070581440357A400EE
:1031140097F7FF1F83D767FF631EF7009387C18765
:103124009C4389CB0D473AC22316210152C44C005B
:103134004E858297B2502254268502599254F24900
:10314400624A456182808547EF70E069AA845DFD2B
:103154009387C187984355DB83471A0083460A0047
:103164004C00A207D58FB337F00085073EC24E85C9
:10317400029769BF0111172502001305A56722CC28
:103184002EC6328436C406CEEF100206B2458947F5
:10319400A24603C605006319F602D8418347170007
:1031A40003470700A207D98FC2070D67C18713071A
:1031B4002790639BE700CC452390C60022850946EF
:1031C40097E0FF1FE7802082F240624401450561D9
:1031D400828041677917630CE502411122C406C657
:1031E40085472A84639AF50022852244B240938558
:1031F400419C41016F90002889476396F5008545FD
:10320400EFB0006375D1B2402244410182808280D4
:10321400411126C2AA8441659385419C7D1506C649
:1032240022C4EF902025170500001305C5FAEFB05E
:10323400605797F6FF1F9386A6ED4146994517F50B
:10324400FF1F1305E5E6EF9000182A8419C517251A
:1032540002001305E55AEF0032792285B240224478
:1032640023AE9186924441018280411122C42E846E
:103274009385419C26C206C6AA84EF7080510589B5
:1032840015C197F7FF1F9387A7E283D7A702A285EB
:10329400B2402310F40022442685924401464101A1
:1032A4006F80002CB24022449244494541018280FF
:1032B400CC41411106C6328503C6150083C50500FD
:1032C40022064D8E42068D654186138875A2630CD5
:1032D400060F6348C804138845A26306060B634AB5
:1032E400C800938535A26309B606239006002946D3
:1032F40079A0138855A26308060B938565A2E3168B
:10330400B6FEC1451D4663ECE5064546198E63F3DA
:10331400C7003E862390C600972502009385055179
:1033240089A8138895A26300060F634E060B1388C1
:10333400A5A2630A060F938505A5E318B6FA994575
:103344001D4663EEE502198E63F3C7003E862390A3
:10335400C6009385C18031A89D451D4663E1E50201
:103364002146198E63F3C7003E862390C6009385D9
:103374004188BA9597D0FF1FE780E0660146B240C6
:10338400328541018280AD451D46E3EAE5FE3146C2
:10339400198E63F3C7003E862390C600972502006A
:1033A4009385854CF9B7B1451D46E3EAE5FC3546FE
:1033B400198E63F3C7003E862390C600972502004A
:1033C4009385854B7DB7C1451D46E3EAE5FA45463D
:1033D400198E63F3C7003E862390C600972502002A
:1033E4009385054679B7C1451D46E3EAE5F84546A8
:1033F400198E63F3C7003E862390C600972502000A
:1034040093858548BDB7C1451D46E3EAE5F64546C3
:10341400198E63F3C7003E862390C60097250200E9
:1034240093854543B9B7B5451D46E3EAE5F4394606
:10343400198E63F3C7003E862390C60097250200C9
:103444009385C53D3DB797F6FF1F938626E0414619
:10345400CD4517F5FF1F130565CC6F80D0762D453C
:103464003DEF03C5050009476317E5063285D041E2
:10347400411106C6034716000346060041682207A9
:10348400518F130628FE6308C7026369E600051816
:10349400630307032390060029451DA8130648FE6D
:1034A400630BC7001518E31707FF15473E866377BC
:1034B400F700154621A03E8691C30546CC452390CE
:1034C400C6004206418297D0FF1FE780C0510145E4
:1034D400B2404101828023900600054582808280AB
:1034E40083C7850093F70702E1E3411106C622C4AE
:1034F40026C24AC003C9050009432E888547631BB9
:10350400690203A345003284B6848347130003434E
:103514000300A207B3E767004163130E13FE63823F
:10352400C7030D13638B67040D6813082890638524
:103534000707A947B2402244924402493E8541010B
:103544008280AD4765FB0547B547E365D7FE032594
:10355400C8000546A28597D0FF1FE780C0480149EF
:103564009387818A9843814771D7184361D7268608
:10357400A2854A850297814775BFAD4745FF054738
:10358400B547E369D7FA0325C8000546A28597D055
:10359400FF1FE7804045E9B72244B2409244024904
:1035A400854741016F702024A1473E858280416791
:1035B4007917630CE502411122C406C685472A84A3
:1035C400639AF50022852244B2409385C189410162
:1035D4006F80506A89476396F5008545EFB04025B2
:1035E40075D1B2402244410182808280411122C4BB
:1035F4002A8441659385C1897D1506C6EF8090674D
:10360400170500001305E5FA0588EFB0A01905C0F9
:103614002244B24097F6FF1F938606D54146C5451E
:1036240017F5FF1F130545C341016F80D059B24000
:10363400224401454101828009C523A4A18A014590
:103644008280454582801147636EA7069726020053
:103654009386C6240A0536951841411106C6369745
:10366400AE87B285028705476145639AE700054640
:103674001385C18897D0FF1FE780E0360145B2402B
:103684004101828005476145E39BE7FE05461385BA
:103694000189CDB705476145E393E7FE05461385E8
:1036A4004189C9BF05476145E39BE7FC054613858E
:1036B4008189C9B715476145E393E7FC154613852E
:1036C400018A4DBF09458280411122C42E8493850D
:1036D400C18926C206C6AA84EF70A00B058915C14C
:1036E40097F7FF1F938747B783D7A70BA285B240ED
:1036F4002310F400224426859244014641016F7050
:103704003066B240224492444945410182801145C9
:103714006FE0DFE5411193962500AA852D4506C685
:1037240097D0FF1FE78080F5B240014541018280B8
:10373400411126C29394250022C44AC02A843289A6
:10374400A686AA850146254506C697D0FF1FE780B1
:10375400E0F2A6864A86A285294597D0FF1FE78016
:10376400E0F1B24022449244024901454101828081
:10377400011122CC06CE3714004026CA4AC84EC6D0
:1037840052C483447405034AB40583498405034938
:103794009405EFE07FB28347A40593F4F40F137A02
:1037A400FA0F93E71700230DF40493F9F90F137933
:1037B400F90FB717004003C7A705058B6DFF03D5A5
:1037C400C705A38D4705238C3705A38C2705A38B39
:1037D4009704F2406244D2444249B249224A056104
:1037E400828041119397050122C406C6C1872E84A5
:1037F40063DD0700EF10A03A19C1EF1020332165F3
:10380400218DB24022444101828093F7150013C5F3
:103814001500E5FB9397250163D00702EF10717F34
:10382400FD3537F60200130606E0896503C5C18A33
:10383400EF10F0020965E9B7939715010145E3D24A
:1038440007FC172502001305250BEF00F2191306D8
:103854000064916503C5C18AEF10700011654DB70E
:103864001D7149469725020093858504172502009A
:103874001305855C86CE97D0FF1FE780C01F01E942
:103884001725020013050504EF00121601A0B7F670
:1038940000E0795798CAFD57DCCA0567B7E700E02E
:1038A40023A0E7101306F00290C223A0E71801003A
:1038B40001001306C0038145480897D0FF1FE78025
:1038C4000016970700209387270F3ECA89679387BE
:1038D4000780231CF100B5472304F102A1679387F5
:1038E40007E03ECEB7070105938707103ED0ED47AA
:1038F4002312F10285472303F102970700009387FF
:10390400A7E1BEC4970700009387C7E2BEC68567D8
:10391400938717D02315F10297F7FFFF9387676406
:103924003EDAB7F50700970700009387A7E43EDE69
:103934008146970700009387C7DD7000E1051945AC
:10394400BEC097D0FF1FE78060D3580881479946CF
:1039540070003E960346060085070507A30CC700C2
:10396400E398D7FED24791C70357810185676373F4
:10397400F70001A04808EF105048AA8501C917258F
:103984000200130565F5EF00827401A0F64025617D
:1039940082804111170500001305E5E406C622C420
:1039A400EF10F0411384C18A2300A40019280345B1
:1039B40004002244B24013060032896541016F10AD
:1039C400006A411106C6F3270080A18B1387818604
:1039D40089CBF327008023A4F1861C43DD9B7390DD
:1039E400078001000100B71700409306700523808B
:1039F400D704930680FA2380D7040100010083C60C
:103A0400F70293F6A60FA387D70223800704F326B1
:103A140000801C43A18BD58F7390078023A401865B
:103A240001000100F3270080A18B89CBF3270080DC
:103A340023A4F1861C43DD9B7390078001000100E1
:103A4400B7170040930670052380D704930680FAC5
:103A54002380D7040100010083C6F70293E6260001
:103A6400A387D70223800704F32600801C43A18B7D
:103A7400D58F7390078023A40186010001000545BA
:103A8400EFE01F8869311305407E81470147814675
:103A940005468545EFE05F8DB240014541016F1059
:103AA400706A10C90CC14CC10CC5232A0500B2951B
:103AB4004CC510CD23AAD18A82801387418B1C4325
:103AC400011122CC26CA06CE2A84BA8499C7054598
:103AD40032C62EC482973246A2451C48054563E28D
:103AE400C70658405C44998FB386F5003387C500F8
:103AF40063E7C702638EE5025C4085059386170081
:103B040054C083C6F5FF2380D700EDB75840850520
:103B14001305170048C003C5F5FF2300A700E3976A
:103B2400D5FE1840B307F64058C001476360F7025A
:103B34001C480145918F1CC85C483E969C4050C867
:103B440095E3F2406244D244056182804C4013857F
:103B5400150048C03385E6000345050005072380AA
:103B6400A500E9B782970145E9BF1387418B1C4340
:103B7400011122CC26CA06CE2A84BA8499C70545E7
:103B840032C62EC482973246A2455C48054563E39B
:103B9400C70618445C44998FB386F5003387C50083
:103BA40063E7C702638EE5021C448505938617000C
:103BB40014C483C70700A38FF5FEEDB71844850529
:103BC4001305170008C403470700A38FE5FEE39716
:103BD400D5FE1840B307F64018C401476361F702E5
:103BE4001C480145B2971CC85C483386C7409C40BA
:103BF40050C895E3F2406244D244056182800C448B
:103C04001385150008C403C50500B385E600050740
:103C14002380A500E1B782970145E9BF9387418BD3
:103C24009843011122CC26CA06CEAA843E8419C721
:103C3400054532C62EC402973246A245DC480545E6
:103C440063E9C7049444DC44958F63E9C70481475E
:103C54003387F600638CC702034507003387F500FA
:103C640085072300A700EDB7034805003385E50069
:103C74000507230005013385E600E317F7FE8840B6
:103C840001471D8EB306E500636CC7001C40014567
:103C94008DE3F2406244D244056182800147E1BF72
:103CA40003C80600B306F700AE9623800601050795
:103CB400D1BF82970145F1BF9387418B984301118E
:103CC40022CC26CA06CE2A84BE8409C705452EC640
:103CD4000297B2455C48054563E9B7021C44584461
:103CE4001D8FAE976376B7001C403387E540BA97C3
:103CF4001CC41C480145AE971CC85C48B385B7403A
:103D04009C404CC899C382970145F2406244D24416
:103D1400056182809387419D23A6F186938741A9FB
:103D240023A8F186938741B1411123AAF186938791
:103D340041B906C623ACF186EFF0EFAEB240B7E767
:103D440000E03707400023A0E71041018280B787D5
:103D5400004083C7A70205458D8BB9C3938741876C
:103D6400138501C28C435849411106C622C49307E6
:103D740000029385050463FEE70013060002F53391
:103D840013050002EFF00FB2B24022440145410195
:103D9400828040491376F40FC93B1375F40FDDB7E5
:103DA4008280938741878C4341112A861385C143BE
:103DB40006C6213319C5172502001305E5B6EF0021
:103DC400A242B24003C50182130600029305000219
:103DD40041016F10C028B787004003C767001377FD
:103DE400F70F9376270063830646011106CE22CC93
:103DF40026CA4AC84EC603C7770093060003137742
:103E04000703630BD70203C7770091461377F703C1
:103E1400630CD71E63E3E60C85466305D71C630970
:103E2400071C8946630DD7188D46630DD71AB787CB
:103E3400004009472383E700378700408347770022
:103E4400E207E18763DE072C930720FC2301F702D6
:103E54009386C1868842034775008347650022071D
:103E64005D8F239DE18A83471500A38CF18A8344E7
:103E7400050013F604066305061E1307000C639978
:103E8400E4321307F005639EE7189727020093872F
:103E9400275523AEF18A014409469387C18B8C438D
:103EA400EF0082179307F00F6301F42683D7A18BE9
:103EB400930600043E8763F4F600130700044207E8
:103EC4004183998F9376F70F239DF18AB78700403A
:103ED4002380D702130700FC2DAC93062002630A4B
:103EE400D70E63E3E602930600026306D704930643
:103EF4001002E31ED7F203C767021377C70F1367D5
:103F040027002383E70225B7930630026305D70E03
:103F140093064002E31DD7F003C7270313470704A2
:103F24002389E70203C727031377C70F1367270003
:103F34002389E702EDBD03C7918B95466303D7063A
:103F44009946631BD7069387A18B03D407001307F5
:103F54000004BE8463748700130400049387C1863D
:103F64001389C18B8843420483250900418022863A
:103F7400EF00820A83D704009379F40F818F239D85
:103F8400F18A832709003E9423AE818AB7870040D3
:103F94002380370303C72702134707042381E7025B
:103FA40079B503C7370083C6A18B13770708558FEC
:103FB400A381E7000947DDB723800702E5BF03C7F4
:103FC400770013770704E30407E603C58700D13BB2
:103FD400B9BD03C7A7021377C70F1367270023854B
:103FE400E702B1B503C7770013770704E30107E4D9
:103FF40083C787002DBD03C7E7021377C70F136775
:1040040027002387E70225B503C777001377070442
:10401400E30F07E003C72703134707082389E702D1
:10402400C1BF130750091304F00F6399E7028347D4
:10403400350003472500A207D98F61476397E7003E
:10404400972702009387073AA9B519470144639754
:10405400E700972702009387273925BD014635BD20
:1040640029466364F60A17260200130626898A077E
:10407400B2979C43B29782878347350083462500D5
:104084000946A207D58F93D687006382C60A636860
:10409400D6008547638FF6001304F00F09A88D45F9
:1040A4006381B60A930720020144E397F6FE814731
:1040B40009A8972702009387A78A23AEF18A0144AF
:1040C400C947C207C18363F4E700239DF18A93873C
:1040D400A18B03D607009307000463F4C7001306FB
:1040E40000049389C18B1319060183A50900135990
:1040F40009014A86EFF0517203A609004A9623AEDD
:10410400C18A9307F00F6315F40AB78700401307B9
:10411400F0FC2381E702B787004009472383E700C7
:10412400F2406244D2444249B249056182809727F1
:1041340002009387678023AEF18A014493077002DB
:1041440049B793F7F70F8546638ED7008DC7E3957C
:10415400C7F4972702009387E78223AEF18A0144CC
:10416400F14785B7972702009387C78023AEF18A6A
:104174000144B947B9B7972702009387272623AE8E
:10418400F18A0144914735BF83472500239DF18A75
:1041940005A083C7818B2300F50003D7A18B854736
:1041A40063F8E7008547DDB783472500238CF18A50
:1041B400E204E184E3CC04CE814609BB13F7F401A5
:1041C4008947E314F7F4834745006381E704636C8C
:1041D400F7000547E39BE7F2378700408347670210
:1041E40093F7370799A0130710086388E7021307AA
:1041F4002008E39CE7F0378700408347A70293F742
:10420400C70B93E727002305F7025DB73787004004
:104214008347A70293F73707FDB7378700408347E3
:10422400670293F7C70B93E727002303F70249B705
:10423400230005009DB7230005009C42A3800700CE
:1042440003D7A18B8947E3F5E7F689B7937617007F
:104254008DC2A381070009472381E70249472383CD
:10426400E7022385E7022387E70205472383E70064
:10427400828093764700FDDA03C757001147FDB7E4
:104284002A86B305B04017250200130525866FF072
:1042940011649307000819E193078008739007805D
:1042A4000100010001458280011106CE19C589472C
:1042B4006301F502F24005618280680097C0FF1F28
:1042C400E7806072172502001305458FEFF0D17166
:1042D400D5B7680097C0FF1FE780E070172502007C
:1042E4001305858FE5B783D7018E6390A7022391C9
:1042F400B18E2392C18E2393D18E2E861715020080
:104304001305C57CBE856FF0915C1715020013057B
:10431400657D6FF0716D03574500011106CE83D79B
:10432400018E631FF702C167F917894503C501822E
:1043340023A0F18E23A2018EEF009074914503C552
:104344000182EF00F07385471306F10085451305DC
:104354005030A307F100EF702106F240056182801E
:104364001715020013050578EFF01168FDB73D89B4
:104374007D15954763E4A7161717020013074762D4
:104384000A053A951C41411122C406C6BA972E84E7
:104394008287171502001305E5762244B2404101D5
:1043A4006FF0916483C7250019476391E7022E8556
:1043B4009D3783456400171502001305A575EFF0BA
:1043C4001151171502001305A576C1BF0D47E38AE5
:1043D400E7FEB24022444101828003C7250095478D
:1043E400E319F7FEC16703D7018EF91703D5A500BA
:1043F400630FF700EF70612E171502001305457463
:10440400EFF0915E171502001305057679B7239036
:10441400A18E83D7E5001306006403C501822391AE
:10442400F18E83D705012392F18E83D72501894527
:104434002393F18EDD472396F182EF005042096603
:1044440013060690A14503C50182EF00504105669D
:10445400130606C8914503C50182EF005040035678
:10446400E4008355A400171502001305A56EEFF0B0
:10447400114649BF03C725008D47171502001305D0
:10448400656FE318F7F411BF83C52500914763975F
:10449400F500171502001305656F01B79947639F6F
:1044A400F50022858D3D8345640017150200130530
:1044B40065662244B24041016FF071419547639AA9
:1044C400F50083471400F1F7171502001305C56DB5
:1044D400E9B5171502001305A56DE1BF82809C4163
:1044E4000947638FE7000D476382E702054763923C
:1044F400E706AA8517150200130545576FF0313DED
:10450400AA85171502001305A558CDBF411122C471
:104514002E8483D58500171502001305A55906C6F8
:10452400EFF0F13A035684004C40138501C2EFF0DA
:10453400CFD819C5171502001305053FEFF0D14A6E
:104544002244B24003C501829305000441016F0077
:10455400101982807971170500001305A52506D668
:1045640022D426D2EF10A0059384018299470544F2
:104574002380A400231AF100100893074006854500
:1045840013055030231CF10023088100EF60D16231
:1045940017E6FF1F130686E6E14513057030EF604A
:1045A400B161138641829D4513056030EF60D1608F
:1045B4005008894513051031EF60116030088945B2
:1045C40013052031EF60515F930500050D45EF2081
:1045D400F063930500051145EF2050638545794547
:1045E400EF20D06230089145130570402304810008
:1045F400230681002308810002CC230A0100EF5026
:1046040051243000854513050040EF50912370007C
:10461400854513051040EF50D122500885451305F8
:104624002040EF5011221008854513055040EF50EB
:1046340051217D55EF5090187D55EF709060EFE05B
:104644009FE07D55EFE09FFA17050000130565E92B
:10465400EFE01FBC17E6FF1F1306C6D8D54501457A
:10466400EF50700489472306F1008D472308F100B9
:104674009147230AF10093870186984383C7470033
:104684003000854501453ACC230EF1002304810016
:10469400EFE07FFB700085450545EFE0DFFA100889
:1046A40085450945EFE03FFA500885450D45EFE0A3
:1046B4009FF9300895451145EFE0FFF8C16713876E
:1046C400018EF9171CC3232207001385C181EFE073
:1046D400BFF61385418CEF40A16E03C504008545E8
:1046E4000564EF00C07F03C5040093050008EF00D4
:1046F400007F13060480970600009386C6B997F5D9
:10470400FF1F938565AB1385C143EFF08FB9130683
:10471400048097060000938606B897E5FF1F9385EB
:10472400E527138501C2EFF0CFB7B250225492545B
:104734004561828041112E8683D5C18206C622C47A
:1047440026C29387E5FF634FF60017150200130591
:10475400652FEFF0D1176D442285B2402244924474
:1047640041018280420641820147AA848146ED4587
:1047740003D5018E239DC18CEF50103C23AEA18C38
:10478400054479D903D6A18DA68597C0FF1FE7807C
:10479400802501469385818D03D5018EEFE0FFAC22
:1047A4002A845DD9ED451385818DEF50B0506DB7E6
:1047B400797122D426D206D64AD04ECE52CC0018D5
:1047C40093970501C187AE8463D5070A03C50182A7
:1047D400F9262A8939C5834705001307000B638925
:1047E400E7061307000D639CE7028347250045474E
:1047F4006385E70465476394E7020348A50083479C
:10480400950003478500834675000346650083458C
:104814005500171502001305251AEFF0510B4A85B0
:1048240031262165258D130104FDB2502254925482
:104834000259F249624A4561828003466500834514
:104844007500171502001305251AEFF05108C1BFB2
:10485400034745009307F007E313F7FC83558500EE
:10486400171502001305051A2396B182EFF03106DD
:104874007DB793F7150091CF17E6FF1F1306C6B552
:10488400938541C103C50182EF60417F13C51400C4
:1048940059BF93F72500ADCF13060064894503C5BE
:1048A4000182EF00C07B930780F8230AF4FC03D74E
:1048B400C1828D4763EBE700171502001305C51588
:1048C400EFF0911213C52400B9BF85470147814613
:1048D4000546ED4503D5018E231DF4FCEF50D0258C
:1048E400232EA4FC65D10356A4FD930544FD97C073
:1048F400FF1FE780400F930584FD03D5018EEFE091
:10490400BFDC69D1ED45130584FDEF50B03A5DBFBE
:1049140093F7850085C383C7018213074006814648
:1049240013064006994503D5018EEF60816E13C5C9
:104934008400D5BD93F705019DC301478946094607
:10494400814503D5018EEF60915BAA85171502009E
:104954001305850DEFF0A17713C50401E9B593F7AD
:10496400450085C303D5018EEF60F1560566130635
:1049740006C8914503C50182EF00606E13C544006B
:104984005DB593F70502C9C71389C143138AC18270
:1049940083274901B9C383D7C1821386D7FFB107DF
:1049A400918392078A893301F14083274901637116
:1049B400F6048A854A85EFF06FA683450A000A85C6
:1049C400F51593F5F50FBD3301CD130600059305D9
:1049D400000203C5018261254E8113C50402A1B5FD
:1049E40083D5C182F5154A85EFF00FAD4E814DB7E1
:1049F400032649018A854A85EFF04FA283254901A0
:104A04000A8593F5F50F3D3369F183254901E1BF2B
:104A140093F70508A9CBEFD0BF8C03D6018C329550
:104A2400420541811306A0413306C5022396A18C99
:104A340097150200938585001385018D2D82EFF073
:104A4400617B95451385018DF5311305800C97C065
:104A5400FF1FE780E0B09305000803C501824121F0
:104A640013C50408C9B393F705040145E38D07DAB8
:104A7400938701C2DC4B89CBEFF06FAD15469305EC
:104A8400000403C50182E12B13C5040469BB411171
:104A94001305800406C622C497B0FF1FE780E060B8
:104AA400371400408327840A8D451305002093E7BB
:104AB40007202324F40AEFE00FB9EFE0AFD38145D8
:104AC4000545EFE04FB889450545EFD0AFFC81457A
:104AD40013050002EFE02FB7EFD0EFF22390A18C83
:104AE400A547230CF404171502001305E534EFF071
:104AF400A16FEFE0FFD6EFE0DFE9EF609140EFF068
:104B04007FA5EFF02FA197C0FF1FE780E0AA23AC99
:104B140005FE1C4191E7010001000CC18280BA87A7
:104B240003A787FF6DFF23ACB7FE82801DC18346B8
:104B3400E5FF1307F00F9147639EE600411106C697
:104B440097D0FF1FE78040D5B24081473E854101A1
:104B5400828095473E85828001E901458280014536
:104B6400B24022444101828095654111938505D06C
:104B740022C4C98D2A842105C2054205C18141810F
:104B840006C697D0FF1FE78000C471D9FD572320C4
:104B94000500231285002303F5002105D1B717076B
:104BA4000020130727661C43411122C426C24AC0B1
:104BB40006C601440149BA8489E7A165D1251DC40B
:104BC40001A803C7E7FF631AA7020DCCA165012E54
:104BD4009840832784FF6319E402170700202323E6
:104BE400F762FD57232C04FE230FF4FE2285B24006
:104BF4002244924402494101828011E03E8983A704
:104C040087FF5DBF3E84E5BF232CF9FED9BFB1CD3C
:104C1400411122C406C62A849707002083C7D75EA1
:104C24002E856375F400894763E8870001370D45D5
:104C3400B24022444101828083A785FF99E703C7DC
:104C4400E5FF9307F00F6305F700CD351545CDB7A4
:104C5400238F85FE170500201305C55A4D3D228577
:104C64002244B240A16541019DAC1545828097075D
:104C7400002023A907588280970700209387075EA6
:104C84009C4399E33E85828003D727006316B700CF
:104C940003C70700E308A7FEDC47E5B7C9C179717C
:104CA40022D406D626D24AD04ECE01444147B3D7A9
:104CB4008540858BA5C31205314722953305E5024E
:104CC400970700209387875D03A907008544B39461
:104CD4008400C204C180BE892A990327090011C730
:104CE400032549002EC60297B24531473304E40236
:104CF40083A709003E941C4489E72320090023224A
:104D04000900B2502254A58D02599254F2492E85BD
:104D1400456182800504E31CE4F88144DDB72E85F7
:104D2400828041111397050122C406C626C24AC0D7
:104D340041872E84635E07009D3511C1C53BA16781
:104D44003D8C2285B2402244924402494101828032
:104D5400EDD9AA8701474146B356E440858A8DCEF2
:104D64009207BA97B146B387D70297060020938675
:104D7400E65203A906008544B394E400C204C1804A
:104D84003E998327090003254900829723200900BF
:104D940023220900258C75B70507E31FC7FA814450
:104DA400D5BF970700209387A74B9C53411122C47A
:104DB40006C61384018399C782971C403E9523A895
:104DC400A18239A0970700209387C7489C43EDF739
:104DD4000840B74703009387D73F3305F502B7A7C9
:104DE4002600938737ECB24022443E9523A8A18243
:104DF400410182807DC1970700209387A7459C438A
:104E0400797122D426D24AD04ECE52CC56CA5AC830
:104E140006D65EC63A8AB689328BAE8A2A898297CA
:104E240097070020938787479843BE840144B1467F
:104E3400C147B30BD40233067701104251EAC1656E
:104E4400938505F0414597D0FF1FE780C0971DE586
:104E5400970700209387C7409C5B2D4589C7114560
:104E6400814582972D45B250225492540259F249F9
:104E7400624AD24A424BB24B456182809707002076
:104E84009387C73D984329E39707002023A8A73CAD
:104E9400230005009C40054733178700232605009F
:104EA400232465012311E50023224501DE9723A075
:104EB400270123A2570123A447010145E38509FAE9
:104EC400238089004DB73E875C47F5FF48C7C9B7C3
:104ED4000504E310F4F6214579B709458280970764
:104EE400002083C777326371F50217070020130788
:104EF400A7369317150008433E9583570500DD8DAB
:104F04002310B500014582800D458280970700205B
:104F140083C7972F6373F502170700201307C7335E
:104F240093171500084393C5F5FF3E958357050075
:104F3400FD8D2310B500014582800D458280130745
:104F440005FF1377F70FFD4763E9E70AB146B30698
:104F5400D50297070020938767349843894736978B
:104F6400184349CF011122CC4EC60544935945003C
:104F74003D893315A40013140501418026CA4E85CA
:104F8400AE84A2854AC806CEC5392A89814731CD67
:104F9400A2854E85A53F970700209387A72B9C43A6
:104FA40082979707002083D76730338797022A8434
:104FB400814613060064B3B7970213050732B3356D
:104FC400E500BE95EFE0D14BB307850097060020BE
:104FD4009386462D3E87D44263E4A70063E4D7005A
:104FE4003387D7402324E9008147F2406244D24406
:104FF4004249B2493E850561828089473E85828067
:10500400011126CA06CE22CC4AC84EC6BD478944E1
:1050140063EFA70231473307E50297070020938720
:10502400E7279C438944BA979C4395C305443314AA
:10503400A400420441802E890145A2853539AA89FC
:10504400814411C5A2850145D13523A42901F2402B
:10505400624426854249D244B24905618280970759
:10506400002083C7771A6364F5000145828001112B
:10507400970700209387071E56C283AA070006CE0F
:1050840022CC26CA4AC84EC652C4638D0A0A170ADD
:105094000020130A2A2183244A00B74736FE938747
:1050A40007C8AE899705002083D54520BE94B387F1
:1050B400C5022A8432898146B3B5C50213850732F5
:1050C400B337F50013060064BE95EFE0713B63EB64
:1050D400A406829A9705002083D5451DB38725032E
:1050E400AA84130600648146B3B5250313850732E9
:1050F400B337F500BE95EFE0B138B3079500BE8431
:1051040003274A0063E4A70063E4E700B384E740AD
:10511400CE852285953601C504C505452DA0936528
:1051240004F0C205C181414597C0FF1FE780A06913
:1051340005E5970700209387A7129C5B81C7A2858A
:10514400114582970145F2406244D2444249B24932
:10515400224A924A056182809707002093870710AC
:105164009C439DE39707002023AAA70E8547232687
:10517400050004C52311350123008500A300F500B3
:105184002322050059BFBA87D84775FFC8C7F9BF9E
:1051940059C9797122D426D24AD04ECE52CC56CA9D
:1051A4005EC662C466C206D65AC83689328AAE89D9
:1051B400AA844144314C970A0020938A2A0E854CD4
:1051C400930B0003330B840303A70A005A971C4371
:1051D400B1E79375F400B395BC0013554440C20580
:1051E4005286C1811375F50F9D3D0DC983A70A0031
:1051F4000145DA9784C323A237016304090023001D
:105204008900B250225492540259F249624AD24A55
:10521400424BB24B224C924C456182800504E3130D
:1052240074FB2145F9BF09458280411122C426C27D
:105234004AC006C62A842E89B2841535CA852285B9
:10524400EFF09FA305CD9705002083D52506B387EE
:1052540095022A84130600648146B3B5950213852A
:105264000732B337F500BE95EFE0912148C0014500
:10527400B240224492440249410182802145CDBF7B
:10528400411122C426C24AC006C62A892E84EFF0E0
:10529400BF9EAA8419C123110500A2854A85BD3188
:1052A4009707002083C747F6639B270197070020D1
:1052B40083D707FA5D8C97070020239B87F8014565
:1052C40091E01945B240224492440249410182804E
:1052D4009307F00263E8A7044111B14722C43304E1
:1052E400F50226C297040020938444FB9C4006C622
:1052F400A297984389470DC39377F5008545B395E5
:10530400F500C205C1811181A53F9C40A29723A04D
:10531400070023A207008147B240224492443E85FD
:105324004101828089473E858280411106C622C49C
:10533400EFF09F9411E50145B2402244410182807F
:1053440097070020938707F19C43004582979707AE
:105354000020938727F56368A402D843B74636FE36
:10536400938606C83305A4403697E376E5FC130715
:105374000064B335E50203D6870081463305E502B0
:10538400EFE0111055BFD8433A94C1BF411122C474
:1053940026C2170400201304E4F097040020938429
:1053A400A4E694485840970700209387A7EA06C6C6
:1053B4009C436393E60882975440B74736FE93872D
:1053C40007C8B6973387A7003A856364F700636418
:1053D400D7003305D740970400209384A4059C4C40
:1053E40081CF970700209387E70B94433707CDFFBE
:1053F4007D179C46F98F9CC611E148409707002011
:10540400938707E6DC53829719E59C4C8DC3EF0024
:10541400C156EFF0B0399C4C99CB97070020938785
:1054240067089843B70633001C47D58F1CC7B240A2
:105434002244924441018280829798489707002031
:1054440083C757E354401D8FB307A7003E8563E429
:10545400E700E3E2D7F83385D740B5BF411106C66C
:105464009707002023AEA7E20295B24097070020D9
:1054740023A8A7DA014541018280994763E9B7006F
:105484008A05970700209387E7DABE9588C1828052
:10549400411171468145170500201305A5D906C69B
:1054A4009707002023AC07DA9707002023AA07DE1A
:1054B4009707002023A007DA97B0FF1FE780205644
:1054C400130680028145170500201305E5D397B024
:1054D400FF1FE780C054EF60812C9707002083C72B
:1054E40097D913D527008D8B3E958D473305F5024B
:1054F400854539051375F50F970700202387A7D035
:1055040099473305F5021305052497C0FF1FE7806B
:10551400802B170700202323A7D859CD99471706B6
:105524000020034686CE3306F60281451306062480
:1055340097B0FF1FE780A04E97070020938707D6F8
:105544009C4393870724170700202323F7CE1707CC
:105554000020034787CB0A07BA9717070020232D9B
:10556400F7CEEFF0CFF0052B97070020938747CCB9
:1055740094439707002083C737C9139727003697AA
:1055840017F6FFFF1306C67110C3138717001377AE
:10559400F70F0A07369717F6FFFF1306C67810C3EE
:1055A40013873700890793F7F70F8A0797050020B9
:1055B400A38CE5C4B69790C3B2404101828097079B
:1055C400002083C777C417070020034707C463F389
:1055D400E702170700201307A7C51843938617008F
:1055E40017060020A302D6C293962700369708C355
:1055F4003E8582809307F00FE5BF1C41638A07163E
:1056040041777D8FB706002089476314D716035767
:10561400450063000716411122C419462A849305E4
:10562400F00F690506C697B0FF1FE780604905477C
:105634008D47630AE5121C4481CB5858994763048B
:105644000712185C630107121306C003814517058E
:1056540000201305E5C097B0FF1FE780403C130608
:10566400C003A28517050020130585BF97B0FF1F4F
:10567400E780603717070020035747BF97070020CC
:10568400938707BE19E71307001097060020239F8E
:10569400E6BC17070020034787BD11E705479706B7
:1056A40000202386E6BC17070020035767BC11E7D8
:1056B4006D4797060020239DE6BA1707002003478D
:1056C40017BB11E7154797060020A382E6BA170710
:1056D4000020034707BA11E7054797060020238AED
:1056E400E6B8170700200347D7B819E703C7F70040
:1056F40097060020A38FE6B617070020034787B755
:1057040011E73547970600202386E6B617070020E1
:10571400034797B619E71307800297060020A38D65
:10572400E6B4170700200347F7B419E71307D002BC
:1057340097060020A380E6B40347840119E7130702
:10574400C003970600202389E6B29C5791C782972D
:1057540097070020239EA7AAFD5717070020A3053B
:10576400F7DA3D338147B24022443E8541018280CD
:1057740089473E85828001114EC69709002093898E
:1057840069B283A7090006CE22CC26CA4AC852C4ED
:10579400829713090064B335250303DA890081462F
:1057A400528633052503EFE0A14D97070020938728
:1057B400A7A5804FAA8401456306940233858440DB
:1057C400636E940003A5490052868146B335A9024D
:1057D4003305A902EFE0C14A018D26959707002001
:1057E40023A097A4F2406244D2444249B249224AD7
:1057F40005618280011122CC0A852E8441469705D9
:1058040002009385E5FC06CEEFE0110118080604BA
:105814003A94035504FF9707002083D747A9F24021
:105824006244AA9737450F00130505243355F50242
:10583400056182809707002083D767A751471D45DC
:10584400637CF702794719456378F702130720034D
:1058540015456373F7021307B0041145637EF7001F
:10586400130740060D456379F700130760090945DE
:105874006374F70013B5B70F8280011122CC06CEF2
:105884002A842EC6EFF0EFD1B245F240818D33A5C4
:10589400A502229562441375F50F056182800111FA
:1058A40022CC06CE2A842EC6EFF0AFCFB245F2400A
:1058B400818D33A5A502229562444205418105618B
:1058C4008280011122CC06CE2A842EC6EFF06FCD41
:1058D400B245F240818D33B5A5022295624405613B
:1058E4008280970700209387A797985739CB411157
:1058F40022C426C206C6BE84029717070020035797
:1059040027912A8415CBBA876373A700AA87C20795
:10591400C183BA866373E400A286C206C182958FEE
:105924005147635BF700DC5491C38297EFF0706ECC
:1059340097070020239E878CB24022449244410161
:10594400828082809707002093878791DC5701111A
:1059540006CEAA8581C72AC68297B245C1C59C4195
:105964000545B5CFDC41A5CF83D78500ADCB83D723
:10597400A500B5C783C7C500BDE341461705002090
:105984001305459297B0FF1FE780E00597070020B5
:10599400938747919C4317070020232DF78A970785
:1059A400002083C7778D8DE79307800217050020B9
:1059B4000355C58F3305F50237460F001306062439
:1059C40081468145EFE0C12B97070020A386A78A73
:1059D40017050000130565DAEFF05FA80145F240F2
:1059E400056182809707002083C7E78813978701A2
:1059F4006187635407049707002023A5078297B79C
:105A0400FF1F9387474117070020232DF7887D57F1
:105A14009707002023AAE788B7873200938727A136
:105A24009706002023A4F68897070020238207887E
:105A3400B7C7004023A4E72691BF13F7170005CF8B
:105A4400B7872003938707D0170700202320F78602
:105A5400B707C0A8170700202328F78497B7FF1FAC
:105A64009387873E17070020232EF782970700208D
:105A74002380078421BF6177970600202398E6825C
:105A840081CB93070032170700202312F782C9B78E
:105A940093072003CDBF011122CC17F4FF1F130479
:105AA400247C084406CE26CA4AC801E90545F240CA
:105AB4006244D2444249056182805C58E5DB185C4B
:105AC40075D77000854582971844B247E300F7FE06
:105AD4009305E00417F5FF1F0355457997C0FF1F91
